:100000000C9434000C943E000C943E000C943E0082
:100010000C943E000C943E000C943E000C943E0068
:100020000C943E000C943E000C943E000C943E0058
:100030000C943E000C943E000C943E000C943E0048
:100040000C943E000C943E000C943E000C943E0038
:100050000C943E000C943E000C943E000C943E0028
:100060000C943E000C943E0011241FBECFEFD8E04C
:10007000DEBFCDBF0E946B000C9436020C940000D2
:10008000CF93DF93CDB7DEB78AE290E0FC01208109
:100090008AE290E0237FFC0120838BE290E0FC0168
:1000A00020818BE290E02C60FC01208384E290E0D0
:1000B000FC01208184E290E02360FC01208385E242
:1000C00090E0FC01208185E290E02360FC01208328
:1000D000DF91CF910895CF93DF93CDB7DEB72F9700
:1000E0000FB6F894DEBF0FBECDBF0E94400019824C
:1000F0008981882309F589E290E0FC018081882FBD
:1001000090E084709927892B59F089E290E0FC01F6
:100110008081882F90E088709927892B09F089C009
:1001200081E0898385E290E0FC01208185E290E016
:100130002D7FFC012083DCCF80E090E0AAE7B3E4D0
:100140008A839B83AC83BD8320E030E04AE755E49B
:100150006A817B818C819D810E94A101DC01CB01A0
:100160008E839F83A887B98720E030E040E85FE373
:100170006E817F81888599850E941B0188232CF4DC
:1001800081E090E09B878A873FC020E03FEF4FE708
:1001900057E46E817F81888599850E949C0118169D
:1001A0004CF520E030E040E251E46A817B818C81B3
:1001B0009D810E94A101DC01CB01BC01CD010E9407
:1001C0002001DC01CB019B878A870FC080E991E089
:1001D0009D878C878C859D850197F1F79D878C87FE
:1001E0008A859B8501979B878A878A859B85892B32
:1001F00069F714C06E817F81888599850E942001EE
:10020000DC01CB019B878A878A859B859F878E87A8
:100210008E859F850197F1F79F878E8785E290E015
:10022000FC01308185E290E023E02327FC0120835C
:100230005FCF00005DCF0E944F0108F481E0089578
:100240000E947B0188F09F5798F0B92F9927B751EA
:10025000B0F0E1F0660F771F881F991F1AF0BA956A
:10026000C9F714C0B13091F00E949501B1E0089532
:100270000C949501672F782F8827B85F39F0B93F24
:10028000CCF3869577956795B395D9F73EF490951D
:100290008095709561957F4F8F4F9F4F0895990F6F
:1002A0000008550FAA0BE0E8FEEF16161706E80740
:1002B000F907C0F012161306E407F50798F0621B61
:1002C000730B840B950B39F40A2661F0232B242B36
:1002D000252B21F408950A2609F4A140A6958FEF55
:1002E000811D811D089557FD9058440F551F59F0E9
:1002F0005F3F71F04795880F97FB991F61F09F3F13
:1003000079F087950895121613061406551FF2CF3B
:100310004695F1DF08C0161617061806991FF1CF8B
:1003200086957105610508940895E894BB276627B2
:100330007727CB0197F908950E944F0108F48FEFBA
:1003400008950E94B4010C9425020E94170238F00F
:100350000E941E0220F0952311F00C940E020C94C2
:10036000140211240C9496010E94730170F3959F5E
:10037000C1F3950F50E0551F629FF001729FBB279C
:10038000F00DB11D639FAA27F00DB11DAA1F649F38
:100390006627B00DA11D661F829F2227B00DA11DEB
:1003A000621F739FB00DA11D621F839FA00D611D71
:1003B000221F749F3327A00D611D231F849F600D92
:1003C000211D822F762F6A2F11249F5750409AF0BB
:1003D000F1F088234AF0EE0FFF1FBB1F661F771F47
:1003E000881F91505040A9F79E3F510580F00C9412
:1003F0000E020C9496015F3FE4F3983ED4F3869589
:1004000077956795B795F795E7959F5FC1F7FE2BB1
:10041000880F911D9695879597F9089597F99F678D
:1004200080E870E060E008959FEF80EC089500247C
:100430000A941616170618060906089500240A9449
:1004400012161306140605060895092E0394000CCF
:1004500011F4882352F0BB0F40F4BF2B11F460FF5E
:1004600004C06F5F7F4F8F4F9F4F0895F894FFCF69
:00000001FF
