:100000000C9434000C9446000C9446000C9446006A
:100010000C9446000C9446000C9446000C94460048
:100020000C9446000C9446000C9446000C94460038
:100030000C9446000C9446000C949A000C944600D4
:100040000C9446000C9446000C9446000C94460018
:100050000C9446000C9446000C9446000C94460008
:100060000C9446000C94460011241FBECFEFD8E03C
:10007000DEBFCDBF21E0A0E0B1E001C01D92A33002
:10008000B207E1F70E94D8000C9406010C9400001E
:10009000CF93DF93CDB7DEB78AE290E0FC012081F9
:1000A0008AE290E0237FFC0120838BE290E0FC0158
:1000B00020818BE290E02C60FC01208384E290E0C0
:1000C000FC01208184E290E02360FC01208385E232
:1000D00090E0FC01208185E290E02360FC01208318
:1000E000DF91CF910895CF93DF93CDB7DEB784E44E
:1000F00090E0FC01208184E490E02260FC012083F8
:1001000085E490E0FC01208185E490E02360FC011F
:10011000208387E490E029EFFC0120838EE690E0C5
:10012000FC0120818EE690E02260FC012083DF91BB
:10013000CF9108951F920F920FB60F9211242F9313
:100140003F938F939F93EF93FF93CF93DF93CDB71D
:10015000DEB7809100018823F1F080910101909138
:1001600002010196909302018093010180910101A7
:10017000909102018A3F910570F010920201109255
:10018000010185E290E0FC01308185E290E023E00E
:100190002327FC012083DF91CF91FF91EF919F9165
:1001A0008F913F912F910F900FBE0F901F90189538
:1001B000CF93DF93CDB7DEB70E9448000E94730053
:1001C0007894809100018823E1F789E290E0FC01B6
:1001D0008081882F90E084709927892B51F089E2E3
:1001E00090E0FC018081882F90E088709927892B0E
:1001F00041F785E290E0FC01208185E290E02D7FCF
:10020000FC01208381E080930001DBCFF894FFCFD5
:00000001FF
